{
  "contractName": "Promoto",
  "abi": [
    {
      "constant": false,
      "inputs": [
        {
          "name": "_name",
          "type": "string"
        }
      ],
      "name": "register",
      "outputs": [],
      "payable": false,
      "stateMutability": "nonpayable",
      "type": "function"
    },
    {
      "constant": true,
      "inputs": [],
      "name": "getNumberOfUsers",
      "outputs": [
        {
          "name": "",
          "type": "uint256"
        }
      ],
      "payable": false,
      "stateMutability": "view",
      "type": "function"
    },
    {
      "constant": false,
      "inputs": [
        {
          "name": "_artistType",
          "type": "string"
        }
      ],
      "name": "becomeAnArtist",
      "outputs": [],
      "payable": false,
      "stateMutability": "nonpayable",
      "type": "function"
    },
    {
      "constant": true,
      "inputs": [],
      "name": "getNumberOfArtists",
      "outputs": [
        {
          "name": "",
          "type": "uint256"
        }
      ],
      "payable": false,
      "stateMutability": "view",
      "type": "function"
    }
  ],
  "bytecode": "0x608060405234801561001057600080fd5b5061060b806100206000396000f300608060405260043610610062576000357c0100000000000000000000000000000000000000000000000000000000900463ffffffff1680634d009288146100675780635f5df44314610092578063a0a7fe65146100fb578063f2c298be14610126575b600080fd5b34801561007357600080fd5b5061007c61018f565b6040518082815260200191505060405180910390f35b34801561009e57600080fd5b506100f9600480360381019080803590602001908201803590602001908080601f016020809104026020016040519081016040528093929190818152602001838380828437820191505050505050919291929050505061019c565b005b34801561010757600080fd5b506101106103f1565b6040518082815260200191505060405180910390f35b34801561013257600080fd5b5061018d600480360381019080803590602001908201803590602001908080601f01602080910402602001604051908101604052809392919081815260200183838082843782019150505050505091929192905050506103fe565b005b6000600280549050905090565b600160003373ffffffffffffffffffffffffffffffffffffffff1673ffffffffffffffffffffffffffffffffffffffff16815260200190815260200160002060020160009054906101000a900460ff1615156101f757600080fd5b6060604051908101604052806000803373ffffffffffffffffffffffffffffffffffffffff1673ffffffffffffffffffffffffffffffffffffffff1681526020019081526020016000208054600181600116156101000203166002900480601f0160208091040260200160405190810160405280929190818152602001828054600181600116156101000203166002900480156102d55780601f106102aa576101008083540402835291602001916102d5565b820191906000526020600020905b8154815290600101906020018083116102b857829003601f168201915b5050505050815260200182815260200160011515815250600160003373ffffffffffffffffffffffffffffffffffffffff1673ffffffffffffffffffffffffffffffffffffffff16815260200190815260200160002060008201518160000190805190602001906103479291906104ba565b5060208201518160010190805190602001906103649291906104ba565b5060408201518160020160006101000a81548160ff02191690831515021790555090505060033390806001815401808255809150509060018203906000526020600020016000909192909190916101000a81548173ffffffffffffffffffffffffffffffffffffffff021916908373ffffffffffffffffffffffffffffffffffffffff1602179055505050565b6000600380549050905090565b806000803373ffffffffffffffffffffffffffffffffffffffff1673ffffffffffffffffffffffffffffffffffffffff168152602001908152602001600020908051906020019061045092919061053a565b5060023390806001815401808255809150509060018203906000526020600020016000909192909190916101000a81548173ffffffffffffffffffffffffffffffffffffffff021916908373ffffffffffffffffffffffffffffffffffffffff1602179055505050565b828054600181600116156101000203166002900490600052602060002090601f016020900481019282601f106104fb57805160ff1916838001178555610529565b82800160010185558215610529579182015b8281111561052857825182559160200191906001019061050d565b5b50905061053691906105ba565b5090565b828054600181600116156101000203166002900490600052602060002090601f016020900481019282601f1061057b57805160ff19168380011785556105a9565b828001600101855582156105a9579182015b828111156105a857825182559160200191906001019061058d565b5b5090506105b691906105ba565b5090565b6105dc91905b808211156105d85760008160009055506001016105c0565b5090565b905600a165627a7a723058208465e52599a99946eb2fedd39b6eb6bcb686665e8fa6bdf1352cdad9fd33035c0029",
  "source": "pragma solidity ^0.4.17;\r\n\r\ncontract Promoto {\r\n\r\n    struct Artist {\r\n        string name;\r\n        string artistType;\r\n        bool isValidArtist;\r\n    }\r\n\r\n    mapping(address => string) private users;\r\n    mapping(address => Artist) private artists;\r\n\r\n    address[] private usersList;\r\n    address[] private artistsList;\r\n\r\n    function register(string _name) public {\r\n        users[msg.sender] = _name;\r\n        usersList.push(msg.sender);\r\n    }\r\n\r\n    function getNumberOfUsers() public view returns(uint) {\r\n        return usersList.length;\r\n    }\r\n\r\n    function becomeAnArtist(string _artistType) public {\r\n        require(artists[msg.sender].isValidArtist);\r\n        artists[msg.sender] = Artist(users[msg.sender], _artistType, true);\r\n        artistsList.push(msg.sender);\r\n    }\r\n\r\n    function getNumberOfArtists() public view returns(uint) {\r\n        return artistsList.length;\r\n    }\r\n}",
  "sourcePath": "C:\\Users\\pia\\Documents\\Blockchain Training\\project\\promoto-dapp\\contracts\\Promoto.sol",
  "compiler": {
    "name": "solc",
    "version": "0.4.24+commit.e67f0147.Emscripten.clang"
  },
  "schemaVersion": "2.0.1",
  "updatedAt": "2018-09-20T10:46:14.044Z"
}